{
  "address": "0x632253ef94A2dd7Ae887E9eba80D40b6E72823A6",
  "abi": [
    {
      "inputs": [
        {
          "internalType": "address",
          "name": "_address",
          "type": "address"
        },
        {
          "internalType": "string",
          "name": "_name",
          "type": "string"
        }
      ],
      "name": "addAddressToAddressBook",
      "outputs": [],
      "stateMutability": "nonpayable",
      "type": "function"
    },
    {
      "inputs": [
        {
          "internalType": "address",
          "name": "_address",
          "type": "address"
        }
      ],
      "name": "deleteAdddress",
      "outputs": [],
      "stateMutability": "nonpayable",
      "type": "function"
    },
    {
      "inputs": [
        {
          "internalType": "address",
          "name": "_address",
          "type": "address"
        },
        {
          "internalType": "string",
          "name": "_name",
          "type": "string"
        }
      ],
      "name": "editAddress",
      "outputs": [],
      "stateMutability": "nonpayable",
      "type": "function"
    },
    {
      "inputs": [
        {
          "internalType": "address",
          "name": "_address",
          "type": "address"
        }
      ],
      "name": "getAddresses",
      "outputs": [
        {
          "internalType": "address[]",
          "name": "",
          "type": "address[]"
        }
      ],
      "stateMutability": "view",
      "type": "function"
    },
    {
      "inputs": [
        {
          "internalType": "address",
          "name": "_address",
          "type": "address"
        }
      ],
      "name": "getAlias",
      "outputs": [
        {
          "internalType": "string",
          "name": "",
          "type": "string"
        }
      ],
      "stateMutability": "view",
      "type": "function"
    },
    {
      "inputs": [
        {
          "internalType": "address",
          "name": "",
          "type": "address"
        },
        {
          "internalType": "uint256",
          "name": "",
          "type": "uint256"
        }
      ],
      "name": "s_addressToAddressArray",
      "outputs": [
        {
          "internalType": "address",
          "name": "",
          "type": "address"
        }
      ],
      "stateMutability": "view",
      "type": "function"
    },
    {
      "inputs": [
        {
          "internalType": "address",
          "name": "",
          "type": "address"
        },
        {
          "internalType": "address",
          "name": "",
          "type": "address"
        }
      ],
      "name": "s_addressToAliasesMapping",
      "outputs": [
        {
          "internalType": "string",
          "name": "",
          "type": "string"
        }
      ],
      "stateMutability": "view",
      "type": "function"
    }
  ],
  "transactionHash": "0x1bd0b1e68af92ef60f22ad13107d3b6058e9cf4a5a062ddf0aa62cd8a0be5881",
  "args": [],
  "numDeployments": 1,
  "solcInputHash": "b53d7f1740c91609318e57acfd6fb544",
  "bytecode": "0x608060405234801561001057600080fd5b5061126e806100206000396000f3fe608060405234801561001057600080fd5b506004361061007d5760003560e01c8063906f63431161005b578063906f6343146100fe57806399900d111461012e578063c8de6d4b1461015e578063f051432a1461017a5761007d565b80630e05c99714610082578063466a03ef1461009e5780635e7f7364146100ce575b600080fd5b61009c60048036038101906100979190610cbc565b610196565b005b6100b860048036038101906100b39190610ce9565b610586565b6040516100c59190610ecf565b60405180910390f35b6100e860048036038101906100e39190610d85565b610633565b6040516100f59190610e92565b60405180910390f35b61011860048036038101906101139190610cbc565b610681565b6040516101259190610ead565b60405180910390f35b61014860048036038101906101439190610cbc565b61074d565b6040516101559190610ecf565b60405180910390f35b61017860048036038101906101739190610d29565b61085b565b005b610194600480360381019061018f9190610d29565b610aaa565b005b60008060003373ffffffffffffffffffffffffffffffffffffffff1673ffffffffffffffffffffffffffffffffffffffff16815260200190815260200160002080549050905060005b81811015610581578273ffffffffffffffffffffffffffffffffffffffff166000803373ffffffffffffffffffffffffffffffffffffffff1673ffffffffffffffffffffffffffffffffffffffff168152602001908152602001600020828154811061024e5761024d611187565b5b9060005260206000200160009054906101000a900473ffffffffffffffffffffffffffffffffffffffff1673ffffffffffffffffffffffffffffffffffffffff16141561056e578160011080156102b057506001826102ad9190610f9c565b81105b156103d5576000803373ffffffffffffffffffffffffffffffffffffffff1673ffffffffffffffffffffffffffffffffffffffff1681526020019081526020016000206001836103009190610f9c565b8154811061031157610310611187565b5b9060005260206000200160009054906101000a900473ffffffffffffffffffffffffffffffffffffffff166000803373ffffffffffffffffffffffffffffffffffffffff1673ffffffffffffffffffffffffffffffffffffffff168152602001908152602001600020828154811061038c5761038b611187565b5b9060005260206000200160006101000a81548173ffffffffffffffffffffffffffffffffffffffff021916908373ffffffffffffffffffffffffffffffffffffffff1602179055505b6000803373ffffffffffffffffffffffffffffffffffffffff1673ffffffffffffffffffffffffffffffffffffffff1681526020019081526020016000206001836104209190610f9c565b8154811061043157610430611187565b5b9060005260206000200160006101000a81549073ffffffffffffffffffffffffffffffffffffffff02191690556000803373ffffffffffffffffffffffffffffffffffffffff1673ffffffffffffffffffffffffffffffffffffffff1681526020019081526020016000208054806104ac576104ab611158565b5b6001900381819060005260206000200160006101000a81549073ffffffffffffffffffffffffffffffffffffffff02191690559055600160003373ffffffffffffffffffffffffffffffffffffffff1673ffffffffffffffffffffffffffffffffffffffff16815260200190815260200160002060008473ffffffffffffffffffffffffffffffffffffffff1673ffffffffffffffffffffffffffffffffffffffff16815260200190815260200160002060006105699190610b3f565b610581565b8080610579906110b1565b9150506101df565b505050565b60016020528160005260406000206020528060005260406000206000915091505080546105b29061104e565b80601f01602080910402602001604051908101604052809291908181526020018280546105de9061104e565b801561062b5780601f106106005761010080835404028352916020019161062b565b820191906000526020600020905b81548152906001019060200180831161060e57829003601f168201915b505050505081565b6000602052816000526040600020818154811061064f57600080fd5b906000526020600020016000915091509054906101000a900473ffffffffffffffffffffffffffffffffffffffff1681565b60606000808373ffffffffffffffffffffffffffffffffffffffff1673ffffffffffffffffffffffffffffffffffffffff16815260200190815260200160002080548060200260200160405190810160405280929190818152602001828054801561074157602002820191906000526020600020905b8160009054906101000a900473ffffffffffffffffffffffffffffffffffffffff1673ffffffffffffffffffffffffffffffffffffffff16815260200190600101908083116106f7575b50505050509050919050565b6060600160003373ffffffffffffffffffffffffffffffffffffffff1673ffffffffffffffffffffffffffffffffffffffff16815260200190815260200160002060008373ffffffffffffffffffffffffffffffffffffffff1673ffffffffffffffffffffffffffffffffffffffff16815260200190815260200160002080546107d69061104e565b80601f01602080910402602001604051908101604052809291908181526020018280546108029061104e565b801561084f5780601f106108245761010080835404028352916020019161084f565b820191906000526020600020905b81548152906001019060200180831161083257829003601f168201915b50505050509050919050565b6000600160003373ffffffffffffffffffffffffffffffffffffffff1673ffffffffffffffffffffffffffffffffffffffff16815260200190815260200160002060008473ffffffffffffffffffffffffffffffffffffffff1673ffffffffffffffffffffffffffffffffffffffff16815260200190815260200160002080546108e49061104e565b80601f01602080910402602001604051908101604052809291908181526020018280546109109061104e565b801561095d5780601f106109325761010080835404028352916020019161095d565b820191906000526020600020905b81548152906001019060200180831161094057829003601f168201915b505050505090506000819050600081511415610aa45782600160003373ffffffffffffffffffffffffffffffffffffffff1673ffffffffffffffffffffffffffffffffffffffff16815260200190815260200160002060008673ffffffffffffffffffffffffffffffffffffffff1673ffffffffffffffffffffffffffffffffffffffff1681526020019081526020016000209080519060200190610a03929190610b7f565b506000803373ffffffffffffffffffffffffffffffffffffffff1673ffffffffffffffffffffffffffffffffffffffff168152602001908152602001600020849080600181540180825580915050600190039060005260206000200160009091909190916101000a81548173ffffffffffffffffffffffffffffffffffffffff021916908373ffffffffffffffffffffffffffffffffffffffff1602179055505b50505050565b80600160003373ffffffffffffffffffffffffffffffffffffffff1673ffffffffffffffffffffffffffffffffffffffff16815260200190815260200160002060008473ffffffffffffffffffffffffffffffffffffffff1673ffffffffffffffffffffffffffffffffffffffff1681526020019081526020016000209080519060200190610b3a929190610b7f565b505050565b508054610b4b9061104e565b6000825580601f10610b5d5750610b7c565b601f016020900490600052602060002090810190610b7b9190610c05565b5b50565b828054610b8b9061104e565b90600052602060002090601f016020900481019282610bad5760008555610bf4565b82601f10610bc657805160ff1916838001178555610bf4565b82800160010185558215610bf4579182015b82811115610bf3578251825591602001919060010190610bd8565b5b509050610c019190610c05565b5090565b5b80821115610c1e576000816000905550600101610c06565b5090565b6000610c35610c3084610f16565b610ef1565b905082815260208101848484011115610c5157610c506111ea565b5b610c5c84828561100c565b509392505050565b600081359050610c738161120a565b92915050565b600082601f830112610c8e57610c8d6111e5565b5b8135610c9e848260208601610c22565b91505092915050565b600081359050610cb681611221565b92915050565b600060208284031215610cd257610cd16111f4565b5b6000610ce084828501610c64565b91505092915050565b60008060408385031215610d0057610cff6111f4565b5b6000610d0e85828601610c64565b9250506020610d1f85828601610c64565b9150509250929050565b60008060408385031215610d4057610d3f6111f4565b5b6000610d4e85828601610c64565b925050602083013567ffffffffffffffff811115610d6f57610d6e6111ef565b5b610d7b85828601610c79565b9150509250929050565b60008060408385031215610d9c57610d9b6111f4565b5b6000610daa85828601610c64565b9250506020610dbb85828601610ca7565b9150509250929050565b6000610dd18383610ddd565b60208301905092915050565b610de681610fd0565b82525050565b610df581610fd0565b82525050565b6000610e0682610f57565b610e108185610f7a565b9350610e1b83610f47565b8060005b83811015610e4c578151610e338882610dc5565b9750610e3e83610f6d565b925050600181019050610e1f565b5085935050505092915050565b6000610e6482610f62565b610e6e8185610f8b565b9350610e7e81856020860161101b565b610e87816111f9565b840191505092915050565b6000602082019050610ea76000830184610dec565b92915050565b60006020820190508181036000830152610ec78184610dfb565b905092915050565b60006020820190508181036000830152610ee98184610e59565b905092915050565b6000610efb610f0c565b9050610f078282611080565b919050565b6000604051905090565b600067ffffffffffffffff821115610f3157610f306111b6565b5b610f3a826111f9565b9050602081019050919050565b6000819050602082019050919050565b600081519050919050565b600081519050919050565b6000602082019050919050565b600082825260208201905092915050565b600082825260208201905092915050565b6000610fa782611002565b9150610fb283611002565b925082821015610fc557610fc46110fa565b5b828203905092915050565b6000610fdb82610fe2565b9050919050565b600073ffffffffffffffffffffffffffffffffffffffff82169050919050565b6000819050919050565b82818337600083830152505050565b60005b8381101561103957808201518184015260208101905061101e565b83811115611048576000848401525b50505050565b6000600282049050600182168061106657607f821691505b6020821081141561107a57611079611129565b5b50919050565b611089826111f9565b810181811067ffffffffffffffff821117156110a8576110a76111b6565b5b80604052505050565b60006110bc82611002565b91507fffffffffffffffffffffffffffffffffffffffffffffffffffffffffffffffff8214156110ef576110ee6110fa565b5b600182019050919050565b7f4e487b7100000000000000000000000000000000000000000000000000000000600052601160045260246000fd5b7f4e487b7100000000000000000000000000000000000000000000000000000000600052602260045260246000fd5b7f4e487b7100000000000000000000000000000000000000000000000000000000600052603160045260246000fd5b7f4e487b7100000000000000000000000000000000000000000000000000000000600052603260045260246000fd5b7f4e487b7100000000000000000000000000000000000000000000000000000000600052604160045260246000fd5b600080fd5b600080fd5b600080fd5b600080fd5b6000601f19601f8301169050919050565b61121381610fd0565b811461121e57600080fd5b50565b61122a81611002565b811461123557600080fd5b5056fea264697066735822122091119e3d30da201980fbff0dd1fd327cc9565a6a48bc168f39e8cc5b424d5b9164736f6c63430008070033",
  "devdoc": {
    "kind": "dev",
    "methods": {},
    "version": 1
  },
  "userdoc": {
    "kind": "user",
    "methods": {},
    "version": 1
  },
  "storageLayout": {
    "storage": [
      {
        "astId": 7,
        "contract": "contracts/AddressBook.sol:AddressBook",
        "label": "s_addressToAddressArray",
        "offset": 0,
        "slot": "0",
        "type": "t_mapping(t_address,t_array(t_address)dyn_storage)"
      },
      {
        "astId": 13,
        "contract": "contracts/AddressBook.sol:AddressBook",
        "label": "s_addressToAliasesMapping",
        "offset": 0,
        "slot": "1",
        "type": "t_mapping(t_address,t_mapping(t_address,t_string_storage))"
      }
    ],
    "types": {
      "t_address": {
        "encoding": "inplace",
        "label": "address",
        "numberOfBytes": "20"
      },
      "t_array(t_address)dyn_storage": {
        "base": "t_address",
        "encoding": "dynamic_array",
        "label": "address[]",
        "numberOfBytes": "32"
      },
      "t_mapping(t_address,t_array(t_address)dyn_storage)": {
        "encoding": "mapping",
        "key": "t_address",
        "label": "mapping(address => address[])",
        "numberOfBytes": "32",
        "value": "t_array(t_address)dyn_storage"
      },
      "t_mapping(t_address,t_mapping(t_address,t_string_storage))": {
        "encoding": "mapping",
        "key": "t_address",
        "label": "mapping(address => mapping(address => string))",
        "numberOfBytes": "32",
        "value": "t_mapping(t_address,t_string_storage)"
      },
      "t_mapping(t_address,t_string_storage)": {
        "encoding": "mapping",
        "key": "t_address",
        "label": "mapping(address => string)",
        "numberOfBytes": "32",
        "value": "t_string_storage"
      },
      "t_string_storage": {
        "encoding": "bytes",
        "label": "string",
        "numberOfBytes": "32"
      }
    }
  }
}